:100000000C9462000C948A000C948A000C948A0070
:100010000C948A000C948A000C948A000C948A0038
:100020000C948A000C948A000C948A000C948A0028
:100030000C948A000C948A000C948A000C948A0018
:100040000C9457020C948A000C94C7020C94A102E1
:100050000C948A000C948A000C948A000C948A00F8
:100060000C948A000C948A000000000024002700F1
:100070002A0000000000250028002B0000000000DE
:1000800023002600290004040404040404040202DA
:100090000202020203030303030301020408102007
:1000A0004080010204081020010204081020000012
:1000B0000008000201000003040700000000000027
:1000C0000000F90211241FBECFEFD8E0DEBFCDBF84
:1000D00011E0A0E0B1E0E8E3FAE002C005900D9283
:1000E000AC32B107D9F721E0ACE2B1E001C01D921A
:1000F000AC3DB207E1F710E0C2E6D0E004C02197C2
:10010000FE010E941405C136D107C9F70E942E03D3
:100110000C941A050C940000833081F028F481308F
:1001200099F08230A9F008958730A9F08830C9F09D
:100130008430B1F4809180008F7D03C08091800075
:100140008F7780938000089584B58F7784BD08955C
:1001500084B58F7DFBCF8091B0008F778093B00006
:1001600008958091B0008F7DF9CFCF93DF93282F32
:1001700030E0F901E255FF4F8491F901E656FF4F57
:10018000D491F901EA57FF4FC491CC23A1F081111A
:100190000E948C00EC2FF0E0EE0FFF1FE458FF4FA1
:1001A000A591B491EC91ED2381E090E009F480E019
:1001B000DF91CF91089580E090E0FACF1F93CF9325
:1001C000DF93282F30E0F901E255FF4F8491F901C8
:1001D000E656FF4FD491F901EA57FF4FC491CC2363
:1001E000A9F0162F81110E948C00EC2FF0E0EE0F89
:1001F000FF1FEE58FF4FA591B4918FB7F894EC9183
:10020000111108C0D095DE23DC938FBFDF91CF9111
:100210001F910895DE2BF8CFCF93DF9390E0FC0180
:10022000E656FF4F24918A579F4FFC018491882303
:10023000D1F090E0880F991FFC01E859FF4FA5917C
:10024000B491FC01EE58FF4FC591D49161110EC0DD
:100250009FB7F8948C91E22FE0958E238C932881A0
:10026000E223E8839FBFDF91CF9108958FB7F89481
:10027000EC91E22BEC938FBFF6CFAF92BF92CF926F
:10028000DF92EF92FF920F931F93CF93DF936C0156
:100290007B018B01040F151FEB015E01AE18BF0837
:1002A000C017D10759F06991D601ED91FC910190E9
:1002B000F081E02DC6010995892B79F7C501DF9101
:1002C000CF911F910F91FF90EF90DF90CF90BF9053
:1002D000AF900895FC01538D448D252F30E0842F7D
:1002E00090E0821B930B541710F0CF96089501975E
:1002F0000895FC01918D828D981761F0A28DAE0F4B
:10030000BF2FB11D5D968C91928D9F5F9F73928FD1
:1003100090E008958FEF9FEF0895FC01918D828DFD
:10032000981731F0828DE80FF11D858D90E00895CA
:100330008FEF9FEF0895FC01918D228D892F90E022
:10034000805C9F4F821B91098F739927089589E3E1
:1003500091E00E949B0121E0892B09F420E0822F8B
:10036000089580E090E0892B29F00E94A701811177
:100370000C9400000895FC01A48DA80FB92FB11DA5
:10038000A35ABF4F2C91848D90E001968F739927CB
:10039000848FA689B7892C93A089B1898C918370A9
:1003A00080648C93938D848D981306C00288F389A2
:1003B000E02D80818F7D80830895EF92FF920F93CF
:1003C0001F93CF93DF93EC0181E0888F9B8D8C8D01
:1003D00098131AC0E889F989808185FF15C09FB7F5
:1003E000F894EE89FF896083E889F98980818370B8
:1003F000806480839FBF81E090E0DF91CF911F9167
:100400000F91FF90EF900895F62E0B8D10E00F5F87
:100410001F4F0F731127E02E8C8D8E110CC00FB65D
:1004200007FCFACFE889F989808185FFF5CFCE01F5
:100430000E94BB01F1CFEB8DEC0FFD2FF11DE35AB4
:10044000FF4FF0829FB7F8940B8FEA89FB89808178
:100450008062CFCFCF93DF93EC01888D8823B9F0F2
:10046000AA89BB89E889F9898C9185FD03C08081BF
:1004700086FD0DC00FB607FCF7CF8C9185FFF2CF3C
:10048000808185FFEDCFCE010E94BB01E9CFDF91D6
:10049000CF910895FC0101900020E9F73197AF0159
:1004A000481B590BBC0189E391E00C943D011F925C
:1004B0000F920FB60F9211242F933F938F939F9318
:1004C000AF93BF938091350190913601A091370190
:1004D000B09138013091340123E0230F2D3758F5C6
:1004E0000196A11DB11D2093340180933501909395
:1004F0003601A0933701B09338018091300190917B
:100500003101A0913201B09133010196A11DB11DBD
:100510008093300190933101A0933201B093330165
:10052000BF91AF919F918F913F912F910F900FBEEF
:100530000F901F90189526E8230F0296A11DB11D5C
:10054000D2CF1F920F920FB60F9211242F933F9389
:100550004F935F936F937F938F939F93AF93BF93CB
:10056000EF93FF9389E391E00E94BB01FF91EF912C
:10057000BF91AF919F918F917F916F915F914F91BB
:100580003F912F910F900FBE0F901F9018951F92C3
:100590000F920FB60F9211242F938F939F93EF9387
:1005A000FF93E0914901F0914A018081E0914F0170
:1005B000F091500182FD1BC09081809152018F5FAC
:1005C0008F7320915301821741F0E0915201F0E0C6
:1005D000E75CFE4F958F80935201FF91EF919F91C1
:1005E0008F912F910F900FBE0F901F9018958081C3
:1005F000F4CFE9E3F1E01382128288EE93E0A0E009
:10060000B0E084839583A683B7838CE091E09183E7
:10061000808385EC90E09587848784EC90E09787D1
:10062000868780EC90E0918B808B81EC90E0938BBF
:10063000828B82EC90E0958B848B86EC90E0978B9C
:10064000868B118E128E138E148EE6EDF1E01182E0
:10065000108213821282158214820895CF93DF9341
:10066000CDB7DEB7A3970FB6F894DEBF0FBECDBFF0
:10067000789484B5826084BD84B5816084BD85B57D
:10068000826085BD85B5816085BD80916E00816089
:1006900080936E001092810080918100826080932F
:1006A0008100809181008160809381008091800031
:1006B0008160809380008091B10084608093B1005C
:1006C0008091B00081608093B00080917A00846056
:1006D00080937A0080917A00826080937A00809182
:1006E0007A00816080937A0080917A00806880939C
:1006F0007A001092C10061E08CE00E940C0160E081
:1007000084E00E940C0161E08DE00E940C0160E039
:1007100085E00E940C01E0914901F0914A0182E0DC
:100720008083E0914501F09146011082E0914701FC
:10073000F09148018FEC808310925101E0914D01BE
:10074000F0914E0186E08083E0914B01F0914C01E5
:10075000808180618083E0914B01F0914C01808128
:1007600088608083E0914B01F0914C01808180682A
:100770008083E0914B01F0914C0180818F7D8083DB
:10078000EAE04E2E512C612C712C70E0272E70E087
:10079000372E00912E0110912F017801EE0CFF1CD5
:1007A000F701EC5FFE4F80810E94B500019789F44C
:1007B000F701E050FF4F60E080810E94DE000F5F94
:1007C0001F4F0230110508F0CCC010932F01009389
:1007D0002E0184E00E94B500019709F0C9C0809104
:1007E0002D0181112DC08AE191E00E944A0281E22F
:1007F00091E00E944A022091D6013091D701211543
:100800003105D9F08091DA019091DB014091D80156
:100810005091D9018417950780F4AC014F5F5F4F69
:100820005093DB014093DA01880F991F820F931FC9
:1008300024E030E0FC013183208331E030932D014E
:1008400085E00E94B500019709F09BC080912C01C2
:1008500081112DC084E291E00E944A0281E291E080
:100860000E944A022091D6013091D701211531050D
:10087000D9F08091DA019091DB014091D80150913B
:10088000D9018417950780F4AC014F5F5F4F5093F7
:10089000DB014093DA01880F991F820F931F25E037
:1008A00030E0FC013183208331E030932C01009152
:1008B0002E0110912F01F801EE0FFF1FE050FF4FA6
:1008C00061E080810E94DE000F3F1F4F09F07EC073
:1008D000E091DA01F091DB01FBA3EAA3C090D6011D
:1008E000D090D701F12CE12C2AA13BA12E153F0578
:1008F00009F466C0F601819091906F01092C000CFB
:10090000AA08BB08B7FE46C06DE289E391E00E94E9
:10091000DD0122273327A901281939094A095B0972
:1009200019A28E010F5D1F4FCA01B901A3019201E7
:100930000E94F204605DF80162938F012115310578
:100940004105510589F70115110519F0C8010E94EB
:100950004A0281E291E00E944A02FFEFEF1AFF0A89
:10096000C3CF2FEF3FEF30932F0120932E0131CFD4
:1009700084E00E94B500892B09F062CF10922D010E
:100980005FCF84E00E94B500892B09F090CF1092D0
:100990002C018DCFA501940119A28E010F5D1F4F6F
:1009A000CA01B901A30192010E94F204605DF8013D
:1009B00062938F01211531054105510589F7C3CF98
:1009C0002EEF3FEF30932F0120932E01211431049D
:1009D00009F4DFCE0E94A701882309F4D6CE0E9435
:1009E0000000D3CEA1E21A2EAA1BBB1BFD010DC035
:1009F000AA1FBB1FEE1FFF1FA217B307E407F507CF
:100A000020F0A21BB30BE40BF50B661F771F881FAA
:100A1000991F1A9469F760957095809590959B0140
:100A2000AC01BD01CF010895EE0FFF1F0590F491B9
:080A3000E02D0994F894FFCFBA
:100A38000C000D000400050000000000DD013D0170
:100A48006A012A029B0179018D015075736820346F
:0C0A5800000D0A00507573682035000086
:00000001FF
